{
  "_format": "hh-sol-artifact-1",
  "contractName": "MyEpicNFT",
  "sourceName": "contracts/MyEpicNFT.sol",
  "abi": [
    {
      "inputs": [],
      "stateMutability": "payable",
      "type": "constructor"
    },
    {
      "anonymous": false,
      "inputs": [
        {
          "indexed": true,
          "internalType": "address",
          "name": "owner",
          "type": "address"
        },
        {
          "indexed": true,
          "internalType": "address",
          "name": "approved",
          "type": "address"
        },
        {
          "indexed": true,
          "internalType": "uint256",
          "name": "tokenId",
          "type": "uint256"
        }
      ],
      "name": "Approval",
      "type": "event"
    },
    {
      "anonymous": false,
      "inputs": [
        {
          "indexed": true,
          "internalType": "address",
          "name": "owner",
          "type": "address"
        },
        {
          "indexed": true,
          "internalType": "address",
          "name": "operator",
          "type": "address"
        },
        {
          "indexed": false,
          "internalType": "bool",
          "name": "approved",
          "type": "bool"
        }
      ],
      "name": "ApprovalForAll",
      "type": "event"
    },
    {
      "anonymous": false,
      "inputs": [
        {
          "indexed": false,
          "internalType": "address",
          "name": "sender",
          "type": "address"
        },
        {
          "indexed": false,
          "internalType": "uint256",
          "name": "tokenId",
          "type": "uint256"
        }
      ],
      "name": "NewEpicNFTMinted",
      "type": "event"
    },
    {
      "anonymous": false,
      "inputs": [
        {
          "indexed": true,
          "internalType": "address",
          "name": "from",
          "type": "address"
        },
        {
          "indexed": true,
          "internalType": "address",
          "name": "to",
          "type": "address"
        },
        {
          "indexed": true,
          "internalType": "uint256",
          "name": "tokenId",
          "type": "uint256"
        }
      ],
      "name": "Transfer",
      "type": "event"
    },
    {
      "inputs": [
        {
          "internalType": "address",
          "name": "to",
          "type": "address"
        },
        {
          "internalType": "uint256",
          "name": "tokenId",
          "type": "uint256"
        }
      ],
      "name": "approve",
      "outputs": [],
      "stateMutability": "nonpayable",
      "type": "function"
    },
    {
      "inputs": [
        {
          "internalType": "address",
          "name": "owner",
          "type": "address"
        }
      ],
      "name": "balanceOf",
      "outputs": [
        {
          "internalType": "uint256",
          "name": "",
          "type": "uint256"
        }
      ],
      "stateMutability": "view",
      "type": "function"
    },
    {
      "inputs": [
        {
          "internalType": "uint256",
          "name": "tokenId",
          "type": "uint256"
        }
      ],
      "name": "getApproved",
      "outputs": [
        {
          "internalType": "address",
          "name": "",
          "type": "address"
        }
      ],
      "stateMutability": "view",
      "type": "function"
    },
    {
      "inputs": [],
      "name": "getTotalNFTsMintedSoFar",
      "outputs": [
        {
          "internalType": "uint256",
          "name": "",
          "type": "uint256"
        }
      ],
      "stateMutability": "view",
      "type": "function"
    },
    {
      "inputs": [
        {
          "internalType": "address",
          "name": "owner",
          "type": "address"
        },
        {
          "internalType": "address",
          "name": "operator",
          "type": "address"
        }
      ],
      "name": "isApprovedForAll",
      "outputs": [
        {
          "internalType": "bool",
          "name": "",
          "type": "bool"
        }
      ],
      "stateMutability": "view",
      "type": "function"
    },
    {
      "inputs": [],
      "name": "makeAnEpicNFT",
      "outputs": [],
      "stateMutability": "nonpayable",
      "type": "function"
    },
    {
      "inputs": [],
      "name": "name",
      "outputs": [
        {
          "internalType": "string",
          "name": "",
          "type": "string"
        }
      ],
      "stateMutability": "view",
      "type": "function"
    },
    {
      "inputs": [
        {
          "internalType": "uint256",
          "name": "tokenId",
          "type": "uint256"
        }
      ],
      "name": "ownerOf",
      "outputs": [
        {
          "internalType": "address",
          "name": "",
          "type": "address"
        }
      ],
      "stateMutability": "view",
      "type": "function"
    },
    {
      "inputs": [
        {
          "internalType": "uint256",
          "name": "tokenId",
          "type": "uint256"
        }
      ],
      "name": "pickRandomFirstWord",
      "outputs": [
        {
          "internalType": "string",
          "name": "",
          "type": "string"
        }
      ],
      "stateMutability": "view",
      "type": "function"
    },
    {
      "inputs": [
        {
          "internalType": "uint256",
          "name": "tokenId",
          "type": "uint256"
        }
      ],
      "name": "pickRandomSecondWord",
      "outputs": [
        {
          "internalType": "string",
          "name": "",
          "type": "string"
        }
      ],
      "stateMutability": "view",
      "type": "function"
    },
    {
      "inputs": [
        {
          "internalType": "uint256",
          "name": "tokenId",
          "type": "uint256"
        }
      ],
      "name": "pickRandomThirdWord",
      "outputs": [
        {
          "internalType": "string",
          "name": "",
          "type": "string"
        }
      ],
      "stateMutability": "view",
      "type": "function"
    },
    {
      "inputs": [
        {
          "internalType": "address",
          "name": "from",
          "type": "address"
        },
        {
          "internalType": "address",
          "name": "to",
          "type": "address"
        },
        {
          "internalType": "uint256",
          "name": "tokenId",
          "type": "uint256"
        }
      ],
      "name": "safeTransferFrom",
      "outputs": [],
      "stateMutability": "nonpayable",
      "type": "function"
    },
    {
      "inputs": [
        {
          "internalType": "address",
          "name": "from",
          "type": "address"
        },
        {
          "internalType": "address",
          "name": "to",
          "type": "address"
        },
        {
          "internalType": "uint256",
          "name": "tokenId",
          "type": "uint256"
        },
        {
          "internalType": "bytes",
          "name": "_data",
          "type": "bytes"
        }
      ],
      "name": "safeTransferFrom",
      "outputs": [],
      "stateMutability": "nonpayable",
      "type": "function"
    },
    {
      "inputs": [
        {
          "internalType": "address",
          "name": "operator",
          "type": "address"
        },
        {
          "internalType": "bool",
          "name": "approved",
          "type": "bool"
        }
      ],
      "name": "setApprovalForAll",
      "outputs": [],
      "stateMutability": "nonpayable",
      "type": "function"
    },
    {
      "inputs": [
        {
          "internalType": "bytes4",
          "name": "interfaceId",
          "type": "bytes4"
        }
      ],
      "name": "supportsInterface",
      "outputs": [
        {
          "internalType": "bool",
          "name": "",
          "type": "bool"
        }
      ],
      "stateMutability": "view",
      "type": "function"
    },
    {
      "inputs": [],
      "name": "symbol",
      "outputs": [
        {
          "internalType": "string",
          "name": "",
          "type": "string"
        }
      ],
      "stateMutability": "view",
      "type": "function"
    },
    {
      "inputs": [
        {
          "internalType": "uint256",
          "name": "tokenId",
          "type": "uint256"
        }
      ],
      "name": "tokenURI",
      "outputs": [
        {
          "internalType": "string",
          "name": "",
          "type": "string"
        }
      ],
      "stateMutability": "view",
      "type": "function"
    },
    {
      "inputs": [
        {
          "internalType": "address",
          "name": "from",
          "type": "address"
        },
        {
          "internalType": "address",
          "name": "to",
          "type": "address"
        },
        {
          "internalType": "uint256",
          "name": "tokenId",
          "type": "uint256"
        }
      ],
      "name": "transferFrom",
      "outputs": [],
      "stateMutability": "nonpayable",
      "type": "function"
    }
  ],
  "bytecode": "0x6080604052604051806101800160405280610149815260200162004c266101499139600990805190602001906200003892919062000c71565b50604051806101e001604052806040518060400160405280600481526020017f5265616c0000000000000000000000000000000000000000000000000000000081525081526020016040518060400160405280600781526020017f466f72657665720000000000000000000000000000000000000000000000000081525081526020016040518060400160405280600581526020017f466f72636500000000000000000000000000000000000000000000000000000081525081526020016040518060400160405280600481526020017f4c6f75640000000000000000000000000000000000000000000000000000000081525081526020016040518060400160405280600581526020017f4d616a6f7200000000000000000000000000000000000000000000000000000081525081526020016040518060400160405280600381526020017f49524c000000000000000000000000000000000000000000000000000000000081525081526020016040518060400160405280600681526020017f5374726f6e67000000000000000000000000000000000000000000000000000081525081526020016040518060400160405280600881526020017f48617264636f726500000000000000000000000000000000000000000000000081525081526020016040518060400160405280600481526020017f536f66740000000000000000000000000000000000000000000000000000000081525081526020016040518060400160405280600581526020017f517569636b00000000000000000000000000000000000000000000000000000081525081526020016040518060400160405280600481526020017f536c6f770000000000000000000000000000000000000000000000000000000081525081526020016040518060400160405280600481526020017f466173740000000000000000000000000000000000000000000000000000000081525081526020016040518060400160405280600781526020017f4c617374696e670000000000000000000000000000000000000000000000000081525081526020016040518060400160405280600b81526020017f556e73746f707061626c6500000000000000000000000000000000000000000081525081526020016040518060400160405280600a81526020017f556e6265617461626c6500000000000000000000000000000000000000000000815250815250600a90600f620003ca92919062000d02565b50604051806101c001604052806040518060400160405280600781526020017f5368656c6c61680000000000000000000000000000000000000000000000000081525081526020016040518060400160405280600681526020017f506c61796168000000000000000000000000000000000000000000000000000081525081526020016040518060400160405280600481526020017f426f73730000000000000000000000000000000000000000000000000000000081525081526020016040518060400160405280600581526020017f416c70686100000000000000000000000000000000000000000000000000000081525081526020016040518060400160405280600481526020017f4b696e670000000000000000000000000000000000000000000000000000000081525081526020016040518060400160405280600b81526020017f517565656e57696e6e657200000000000000000000000000000000000000000081525081526020016040518060400160405280600681526020017f4b6e69676874000000000000000000000000000000000000000000000000000081525081526020016040518060400160405280600481526020017f44756b650000000000000000000000000000000000000000000000000000000081525081526020016040518060400160405280600781526020017f447563686573730000000000000000000000000000000000000000000000000081525081526020016040518060400160405280600681526020017f4c6561646572000000000000000000000000000000000000000000000000000081525081526020016040518060400160405280600681526020017f4b696c6c6572000000000000000000000000000000000000000000000000000081525081526020016040518060400160405280600681526020017f536176696f72000000000000000000000000000000000000000000000000000081525081526020016040518060400160405280600681526020017f4772616e6e79000000000000000000000000000000000000000000000000000081525081526020016040518060400160405280600681526020017f4772616e70610000000000000000000000000000000000000000000000000000815250815250600b90600e6200072192919062000d69565b50604051806101e001604052806040518060400160405280600481526020017f597574650000000000000000000000000000000000000000000000000000000081525081526020016040518060400160405280600581526020017f422a74636800000000000000000000000000000000000000000000000000000081525081526020016040518060400160405280600581526020017f47656e6e6100000000000000000000000000000000000000000000000000000081525081526020016040518060400160405280600581526020017f536973746100000000000000000000000000000000000000000000000000000081525081526020016040518060400160405280600681526020017f427265646461000000000000000000000000000000000000000000000000000081525081526020016040518060400160405280600481526020017f4c6164790000000000000000000000000000000000000000000000000000000081525081526020016040518060400160405280600381526020017f446f67000000000000000000000000000000000000000000000000000000000081525081526020016040518060400160405280600381526020017f436174000000000000000000000000000000000000000000000000000000000081525081526020016040518060400160405280600581526020017f416c69656e00000000000000000000000000000000000000000000000000000081525081526020016040518060400160405280600681526020017f496e73656374000000000000000000000000000000000000000000000000000081525081526020016040518060400160405280600781526020017f556e6b6e6f776e0000000000000000000000000000000000000000000000000081525081526020016040518060400160405280600681526020017f4e6f626f6479000000000000000000000000000000000000000000000000000081525081526020016040518060400160405280600881526020017f536f6d65626f647900000000000000000000000000000000000000000000000081525081526020016040518060400160405280600881526020017f416e797468696e6700000000000000000000000000000000000000000000000081525081526020016040518060400160405280600481526020017f53696d7000000000000000000000000000000000000000000000000000000000815250815250600c90600f62000ab392919062000d02565b506040518060400160405280600781526020017f4456483a4e4654000000000000000000000000000000000000000000000000008152506040518060400160405280600981526020017f4368617261637465720000000000000000000000000000000000000000000000815250816000908051906020019062000b3892919062000c71565b50806001908051906020019062000b5192919062000c71565b50505062000b9f6040518060400160405280601e81526020017f54686973206973206d79204e465420636f6e74726163742e20576f616821000081525062000ba560201b620013631760201c565b62000f8a565b62000c458160405160240162000bbc919062000e9e565b6040516020818303038152906040527f41304fac000000000000000000000000000000000000000000000000000000007bffffffffffffffffffffffffffffffffffffffffffffffffffffffff19166020820180517bffffffffffffffffffffffffffffffffffffffffffffffffffffffff838183161783525050505062000c4860201b60201c565b50565b60008151905060006a636f6e736f6c652e6c6f679050602083016000808483855afa5050505050565b82805462000c7f9062000f14565b90600052602060002090601f01602090048101928262000ca3576000855562000cef565b82601f1062000cbe57805160ff191683800117855562000cef565b8280016001018555821562000cef579182015b8281111562000cee57825182559160200191906001019062000cd1565b5b50905062000cfe919062000dd0565b5090565b82805482825590600052602060002090810192821562000d56579160200282015b8281111562000d5557825182908051906020019062000d4492919062000c71565b509160200191906001019062000d23565b5b50905062000d65919062000def565b5090565b82805482825590600052602060002090810192821562000dbd579160200282015b8281111562000dbc57825182908051906020019062000dab92919062000c71565b509160200191906001019062000d8a565b5b50905062000dcc919062000def565b5090565b5b8082111562000deb57600081600090555060010162000dd1565b5090565b5b8082111562000e13576000818162000e09919062000e17565b5060010162000df0565b5090565b50805462000e259062000f14565b6000825580601f1062000e39575062000e5a565b601f01602090049060005260206000209081019062000e59919062000dd0565b5b50565b600062000e6a8262000ec2565b62000e76818562000ecd565b935062000e8881856020860162000ede565b62000e938162000f79565b840191505092915050565b6000602082019050818103600083015262000eba818462000e5d565b905092915050565b600081519050919050565b600082825260208201905092915050565b60005b8381101562000efe57808201518184015260208101905062000ee1565b8381111562000f0e576000848401525b50505050565b6000600282049050600182168062000f2d57607f821691505b6020821081141562000f445762000f4362000f4a565b5b50919050565b7f4e487b7100000000000000000000000000000000000000000000000000000000600052602260045260246000fd5b6000601f19601f8301169050919050565b613c8c8062000f9a6000396000f3fe608060405234801561001057600080fd5b50600436106101165760003560e01c806370a08231116100a2578063b88d4fde11610071578063b88d4fde14610305578063c575757a14610321578063c87b56dd14610351578063de9d132f14610381578063e985e9c51461038b57610116565b806370a082311461026b57806395d89b411461029b578063a22cb465146102b9578063b187301f146102d557610116565b8063095ea7b3116100e9578063095ea7b3146101b757806323b872dd146101d35780632de38d68146101ef57806342842e0e1461021f5780636352211e1461023b57610116565b806301ffc9a71461011b578063060475901461014b57806306fdde0314610169578063081812fc14610187575b600080fd5b61013560048036038101906101309190612692565b6103bb565b6040516101429190612de2565b60405180910390f35b61015361049d565b60405161016091906130cd565b60405180910390f35b6101716104e8565b60405161017e9190612dfd565b60405180910390f35b6101a1600480360381019061019c91906126e4565b61057a565b6040516101ae9190612d52565b60405180910390f35b6101d160048036038101906101cc9190612656565b6105ff565b005b6101ed60048036038101906101e89190612550565b610717565b005b610209600480360381019061020491906126e4565b610777565b6040516102169190612dfd565b60405180910390f35b61023960048036038101906102349190612550565b610895565b005b610255600480360381019061025091906126e4565b6108b5565b6040516102629190612d52565b60405180910390f35b610285600480360381019061028091906124eb565b610967565b60405161029291906130cd565b60405180910390f35b6102a3610a1f565b6040516102b09190612dfd565b60405180910390f35b6102d360048036038101906102ce919061261a565b610ab1565b005b6102ef60048036038101906102ea91906126e4565b610c32565b6040516102fc9190612dfd565b60405180910390f35b61031f600480360381019061031a919061259f565b610d50565b005b61033b600480360381019061033691906126e4565b610db2565b6040516103489190612dfd565b60405180910390f35b61036b600480360381019061036691906126e4565b610ed0565b6040516103789190612dfd565b60405180910390f35b610389611022565b005b6103a560048036038101906103a09190612514565b6112cf565b6040516103b29190612de2565b60405180910390f35b60007f80ac58cd000000000000000000000000000000000000000000000000000000007bffffffffffffffffffffffffffffffffffffffffffffffffffffffff1916827bffffffffffffffffffffffffffffffffffffffffffffffffffffffff1916148061048657507f5b5e139f000000000000000000000000000000000000000000000000000000007bffffffffffffffffffffffffffffffffffffffffffffffffffffffff1916827bffffffffffffffffffffffffffffffffffffffffffffffffffffffff1916145b806104965750610495826113fc565b5b9050919050565b60006104e06040518060400160405280601c81526020017f5765206861766520256420746f74616c20636861726163746572732100000000815250600754611466565b600754905090565b6060600080546104f790613361565b80601f016020809104026020016040519081016040528092919081815260200182805461052390613361565b80156105705780601f1061054557610100808354040283529160200191610570565b820191906000526020600020905b81548152906001019060200180831161055357829003601f168201915b5050505050905090565b600061058582611502565b6105c4576040517f08c379a00000000000000000000000000000000000000000000000000000000081526004016105bb9061302d565b60405180910390fd5b6004600083815260200190815260200160002060009054906101000a900473ffffffffffffffffffffffffffffffffffffffff169050919050565b600061060a826108b5565b90508073ffffffffffffffffffffffffffffffffffffffff168373ffffffffffffffffffffffffffffffffffffffff16141561067b576040517f08c379a00000000000000000000000000000000000000000000000000000000081526004016106729061308d565b60405180910390fd5b8073ffffffffffffffffffffffffffffffffffffffff1661069a61156e565b73ffffffffffffffffffffffffffffffffffffffff1614806106c957506106c8816106c361156e565b6112cf565b5b610708576040517f08c379a00000000000000000000000000000000000000000000000000000000081526004016106ff90612f6d565b60405180910390fd5b6107128383611576565b505050565b61072861072261156e565b8261162f565b610767576040517f08c379a000000000000000000000000000000000000000000000000000000000815260040161075e906130ad565b60405180910390fd5b61077283838361170d565b505050565b606060006107ab61078784611969565b6040516020016107979190612d0e565b604051602081830303815290604052611b16565b9050600a80549050816107be919061340d565b9050600a81815481106107fa577f4e487b7100000000000000000000000000000000000000000000000000000000600052603260045260246000fd5b90600052602060002001805461080f90613361565b80601f016020809104026020016040519081016040528092919081815260200182805461083b90613361565b80156108885780601f1061085d57610100808354040283529160200191610888565b820191906000526020600020905b81548152906001019060200180831161086b57829003601f168201915b5050505050915050919050565b6108b083838360405180602001604052806000815250610d50565b505050565b6000806002600084815260200190815260200160002060009054906101000a900473ffffffffffffffffffffffffffffffffffffffff169050600073ffffffffffffffffffffffffffffffffffffffff168173ffffffffffffffffffffffffffffffffffffffff16141561095e576040517f08c379a000000000000000000000000000000000000000000000000000000000815260040161095590612fad565b60405180910390fd5b80915050919050565b60008073ffffffffffffffffffffffffffffffffffffffff168273ffffffffffffffffffffffffffffffffffffffff1614156109d8576040517f08c379a00000000000000000000000000000000000000000000000000000000081526004016109cf90612f8d565b60405180910390fd5b600360008373ffffffffffffffffffffffffffffffffffffffff1673ffffffffffffffffffffffffffffffffffffffff168152602001908152602001600020549050919050565b606060018054610a2e90613361565b80601f0160208091040260200160405190810160405280929190818152602001828054610a5a90613361565b8015610aa75780601f10610a7c57610100808354040283529160200191610aa7565b820191906000526020600020905b815481529060010190602001808311610a8a57829003601f168201915b5050505050905090565b610ab961156e565b73ffffffffffffffffffffffffffffffffffffffff168273ffffffffffffffffffffffffffffffffffffffff161415610b27576040517f08c379a0000000000000000000000000000000000000000000000000000000008152600401610b1e90612f0d565b60405180910390fd5b8060056000610b3461156e565b73ffffffffffffffffffffffffffffffffffffffff1673ffffffffffffffffffffffffffffffffffffffff16815260200190815260200160002060008473ffffffffffffffffffffffffffffffffffffffff1673ffffffffffffffffffffffffffffffffffffffff16815260200190815260200160002060006101000a81548160ff0219169083151502179055508173ffffffffffffffffffffffffffffffffffffffff16610be161156e565b73ffffffffffffffffffffffffffffffffffffffff167f17307eab39ab6107e8899845ad3d59bd9653f200f220920489ca2b5937696c3183604051610c269190612de2565b60405180910390a35050565b60606000610c66610c4284611969565b604051602001610c529190612ca7565b604051602081830303815290604052611b16565b9050600b8054905081610c79919061340d565b9050600b8181548110610cb5577f4e487b7100000000000000000000000000000000000000000000000000000000600052603260045260246000fd5b906000526020600020018054610cca90613361565b80601f0160208091040260200160405190810160405280929190818152602001828054610cf690613361565b8015610d435780601f10610d1857610100808354040283529160200191610d43565b820191906000526020600020905b815481529060010190602001808311610d2657829003601f168201915b5050505050915050919050565b610d61610d5b61156e565b8361162f565b610da0576040517f08c379a0000000000000000000000000000000000000000000000000000000008152600401610d97906130ad565b60405180910390fd5b610dac84848484611b49565b50505050565b60606000610de6610dc284611969565b604051602001610dd29190612c85565b604051602081830303815290604052611b16565b9050600c8054905081610df9919061340d565b9050600c8181548110610e35577f4e487b7100000000000000000000000000000000000000000000000000000000600052603260045260246000fd5b906000526020600020018054610e4a90613361565b80601f0160208091040260200160405190810160405280929190818152602001828054610e7690613361565b8015610ec35780601f10610e9857610100808354040283529160200191610ec3565b820191906000526020600020905b815481529060010190602001808311610ea657829003601f168201915b5050505050915050919050565b6060610edb82611502565b610f1a576040517f08c379a0000000000000000000000000000000000000000000000000000000008152600401610f119061300d565b60405180910390fd5b6000600660008481526020019081526020016000208054610f3a90613361565b80601f0160208091040260200160405190810160405280929190818152602001828054610f6690613361565b8015610fb35780601f10610f8857610100808354040283529160200191610fb3565b820191906000526020600020905b815481529060010190602001808311610f9657829003601f168201915b505050505090506000610fc4611ba5565b9050600081511415610fda57819250505061101d565b60008251111561100f578082604051602001610ff7929190612c01565b6040516020818303038152906040529250505061101d565b61101884611bbc565b925050505b919050565b6000655af3107a4000905060326007541115611073576040517f08c379a000000000000000000000000000000000000000000000000000000000815260040161106a90612ead565b60405180910390fd5b803373ffffffffffffffffffffffffffffffffffffffff163110156110cd576040517f08c379a00000000000000000000000000000000000000000000000000000000081526004016110c490612f4d565b60405180910390fd5b60006110d96008611c63565b905060006110e682610777565b905060006110f383610c32565b9050600061110084610db2565b9050600083838360405160200161111993929190612c25565b60405160208183030381529060405290506000600982604051602001611140929190612c56565b604051602081830303815290604052905060006111858361116084611c71565b604051602001611171929190612cc9565b604051602081830303815290604052611c71565b905060008160405160200161119a9190612d30565b60405160208183030381529060405290506111e96040518060400160405280601581526020017f0a2d2d2d2d2d2d2d2d2d2d2d2d2d2d2d2d2d2d2d2d0000000000000000000000815250611363565b6111f281611363565b6112306040518060400160405280601581526020017f2d2d2d2d2d2d2d2d2d2d2d2d2d2d2d2d2d2d2d2d0a0000000000000000000000815250611363565b61123a3389611e2f565b6112448882611e4d565b61124e6008611ec1565b611271604051806060016040528060258152602001613bf2602591398933611ed7565b6001600760008282546112849190613196565b925050819055507febb98688741ffa4c7589bf325de30cf7becb63de567842e1ccdb6cb949fdc82c33896040516112bc929190612db9565b60405180910390a1505050505050505050565b6000600560008473ffffffffffffffffffffffffffffffffffffffff1673ffffffffffffffffffffffffffffffffffffffff16815260200190815260200160002060008373ffffffffffffffffffffffffffffffffffffffff1673ffffffffffffffffffffffffffffffffffffffff16815260200190815260200160002060009054906101000a900460ff16905092915050565b6113f9816040516024016113779190612dfd565b6040516020818303038152906040527f41304fac000000000000000000000000000000000000000000000000000000007bffffffffffffffffffffffffffffffffffffffffffffffffffffffff19166020820180517bffffffffffffffffffffffffffffffffffffffffffffffffffffffff8381831617835250505050611f76565b50565b60007f01ffc9a7000000000000000000000000000000000000000000000000000000007bffffffffffffffffffffffffffffffffffffffffffffffffffffffff1916827bffffffffffffffffffffffffffffffffffffffffffffffffffffffff1916149050919050565b6114fe828260405160240161147c929190612e1f565b6040516020818303038152906040527f9710a9d0000000000000000000000000000000000000000000000000000000007bffffffffffffffffffffffffffffffffffffffffffffffffffffffff19166020820180517bffffffffffffffffffffffffffffffffffffffffffffffffffffffff8381831617835250505050611f76565b5050565b60008073ffffffffffffffffffffffffffffffffffffffff166002600084815260200190815260200160002060009054906101000a900473ffffffffffffffffffffffffffffffffffffffff1673ffffffffffffffffffffffffffffffffffffffff1614159050919050565b600033905090565b816004600083815260200190815260200160002060006101000a81548173ffffffffffffffffffffffffffffffffffffffff021916908373ffffffffffffffffffffffffffffffffffffffff160217905550808273ffffffffffffffffffffffffffffffffffffffff166115e9836108b5565b73ffffffffffffffffffffffffffffffffffffffff167f8c5be1e5ebec7d5bd14f71427d1e84f3dd0314c0f7b2291e5b200ac8c7c3b92560405160405180910390a45050565b600061163a82611502565b611679576040517f08c379a000000000000000000000000000000000000000000000000000000000815260040161167090612f2d565b60405180910390fd5b6000611684836108b5565b90508073ffffffffffffffffffffffffffffffffffffffff168473ffffffffffffffffffffffffffffffffffffffff1614806116f357508373ffffffffffffffffffffffffffffffffffffffff166116db8461057a565b73ffffffffffffffffffffffffffffffffffffffff16145b80611704575061170381856112cf565b5b91505092915050565b8273ffffffffffffffffffffffffffffffffffffffff1661172d826108b5565b73ffffffffffffffffffffffffffffffffffffffff1614611783576040517f08c379a000000000000000000000000000000000000000000000000000000000815260040161177a9061304d565b60405180910390fd5b600073ffffffffffffffffffffffffffffffffffffffff168273ffffffffffffffffffffffffffffffffffffffff1614156117f3576040517f08c379a00000000000000000000000000000000000000000000000000000000081526004016117ea90612eed565b60405180910390fd5b6117fe838383611f9f565b611809600082611576565b6001600360008573ffffffffffffffffffffffffffffffffffffffff1673ffffffffffffffffffffffffffffffffffffffff16815260200190815260200160002060008282546118599190613277565b925050819055506001600360008473ffffffffffffffffffffffffffffffffffffffff1673ffffffffffffffffffffffffffffffffffffffff16815260200190815260200160002060008282546118b09190613196565b92505081905550816002600083815260200190815260200160002060006101000a81548173ffffffffffffffffffffffffffffffffffffffff021916908373ffffffffffffffffffffffffffffffffffffffff160217905550808273ffffffffffffffffffffffffffffffffffffffff168473ffffffffffffffffffffffffffffffffffffffff167fddf252ad1be2c89b69c2b068fc378daa952ba7f163c4a11628f55a4df523b3ef60405160405180910390a4505050565b606060008214156119b1576040518060400160405280600181526020017f30000000000000000000000000000000000000000000000000000000000000008152509050611b11565b600082905060005b600082146119e35780806119cc906133c4565b915050600a826119dc91906131ec565b91506119b9565b60008167ffffffffffffffff811115611a25577f4e487b7100000000000000000000000000000000000000000000000000000000600052604160045260246000fd5b6040519080825280601f01601f191660200182016040528015611a575781602001600182028036833780820191505090505b5090505b60008514611b0a57600182611a709190613277565b9150600a85611a7f919061340d565b6030611a8b9190613196565b60f81b818381518110611ac7577f4e487b7100000000000000000000000000000000000000000000000000000000600052603260045260246000fd5b60200101907effffffffffffffffffffffffffffffffffffffffffffffffffffffffffffff1916908160001a905350600a85611b0391906131ec565b9450611a5b565b8093505050505b919050565b600081604051602001611b299190612bea565b6040516020818303038152906040528051906020012060001c9050919050565b611b5484848461170d565b611b6084848484611fa4565b611b9f576040517f08c379a0000000000000000000000000000000000000000000000000000000008152600401611b9690612e8d565b60405180910390fd5b50505050565b606060405180602001604052806000815250905090565b6060611bc782611502565b611c06576040517f08c379a0000000000000000000000000000000000000000000000000000000008152600401611bfd9061306d565b60405180910390fd5b6000611c10611ba5565b90506000815111611c305760405180602001604052806000815250611c5b565b80611c3a84611969565b604051602001611c4b929190612c01565b6040516020818303038152906040525b915050919050565b600081600001549050919050565b60606000825190506000811415611c9a5760405180602001604052806000815250915050611e2a565b60006003600283611cab9190613196565b611cb591906131ec565b6004611cc1919061321d565b90506000602082611cd29190613196565b67ffffffffffffffff811115611d11577f4e487b7100000000000000000000000000000000000000000000000000000000600052604160045260246000fd5b6040519080825280601f01601f191660200182016040528015611d435781602001600182028036833780820191505090505b5090506000604051806060016040528060408152602001613c17604091399050600181016020830160005b86811015611de75760038101905062ffffff818a015116603f8160121c168401518060081b905060ff603f83600c1c1686015116810190508060081b905060ff603f8360061c1686015116810190508060081b905060ff603f831686015116810190508060e01b90508084526004840193505050611d6e565b506003860660018114611e015760028114611e1157611e1c565b613d3d60f01b6002830352611e1c565b603d60f81b60018303525b508484525050819450505050505b919050565b611e4982826040518060200160405280600081525061213b565b5050565b611e5682611502565b611e95576040517f08c379a0000000000000000000000000000000000000000000000000000000008152600401611e8c90612fcd565b60405180910390fd5b80600660008481526020019081526020016000209080519060200190611ebc929190612377565b505050565b6001816000016000828254019250508190555050565b611f71838383604051602401611eef93929190612e4f565b6040516020818303038152906040527fe3849f79000000000000000000000000000000000000000000000000000000007bffffffffffffffffffffffffffffffffffffffffffffffffffffffff19166020820180517bffffffffffffffffffffffffffffffffffffffffffffffffffffffff8381831617835250505050611f76565b505050565b60008151905060006a636f6e736f6c652e6c6f679050602083016000808483855afa5050505050565b505050565b6000611fc58473ffffffffffffffffffffffffffffffffffffffff16612196565b1561212e578373ffffffffffffffffffffffffffffffffffffffff1663150b7a02611fee61156e565b8786866040518563ffffffff1660e01b81526004016120109493929190612d6d565b602060405180830381600087803b15801561202a57600080fd5b505af192505050801561205b57506040513d601f19601f8201168201806040525081019061205891906126bb565b60015b6120de573d806000811461208b576040519150601f19603f3d011682016040523d82523d6000602084013e612090565b606091505b506000815114156120d6576040517f08c379a00000000000000000000000000000000000000000000000000000000081526004016120cd90612e8d565b60405180910390fd5b805181602001fd5b63150b7a0260e01b7bffffffffffffffffffffffffffffffffffffffffffffffffffffffff1916817bffffffffffffffffffffffffffffffffffffffffffffffffffffffff191614915050612133565b600190505b949350505050565b61214583836121a9565b6121526000848484611fa4565b612191576040517f08c379a000000000000000000000000000000000000000000000000000000000815260040161218890612e8d565b60405180910390fd5b505050565b600080823b905060008111915050919050565b600073ffffffffffffffffffffffffffffffffffffffff168273ffffffffffffffffffffffffffffffffffffffff161415612219576040517f08c379a000000000000000000000000000000000000000000000000000000000815260040161221090612fed565b60405180910390fd5b61222281611502565b15612262576040517f08c379a000000000000000000000000000000000000000000000000000000000815260040161225990612ecd565b60405180910390fd5b61226e60008383611f9f565b6001600360008473ffffffffffffffffffffffffffffffffffffffff1673ffffffffffffffffffffffffffffffffffffffff16815260200190815260200160002060008282546122be9190613196565b92505081905550816002600083815260200190815260200160002060006101000a81548173ffffffffffffffffffffffffffffffffffffffff021916908373ffffffffffffffffffffffffffffffffffffffff160217905550808273ffffffffffffffffffffffffffffffffffffffff16600073ffffffffffffffffffffffffffffffffffffffff167fddf252ad1be2c89b69c2b068fc378daa952ba7f163c4a11628f55a4df523b3ef60405160405180910390a45050565b82805461238390613361565b90600052602060002090601f0160209004810192826123a557600085556123ec565b82601f106123be57805160ff19168380011785556123ec565b828001600101855582156123ec579182015b828111156123eb5782518255916020019190600101906123d0565b5b5090506123f991906123fd565b5090565b5b808211156124165760008160009055506001016123fe565b5090565b600061242d6124288461310d565b6130e8565b90508281526020810184848401111561244557600080fd5b61245084828561331f565b509392505050565b60008135905061246781613b95565b92915050565b60008135905061247c81613bac565b92915050565b60008135905061249181613bc3565b92915050565b6000815190506124a681613bc3565b92915050565b600082601f8301126124bd57600080fd5b81356124cd84826020860161241a565b91505092915050565b6000813590506124e581613bda565b92915050565b6000602082840312156124fd57600080fd5b600061250b84828501612458565b91505092915050565b6000806040838503121561252757600080fd5b600061253585828601612458565b925050602061254685828601612458565b9150509250929050565b60008060006060848603121561256557600080fd5b600061257386828701612458565b935050602061258486828701612458565b9250506040612595868287016124d6565b9150509250925092565b600080600080608085870312156125b557600080fd5b60006125c387828801612458565b94505060206125d487828801612458565b93505060406125e5878288016124d6565b925050606085013567ffffffffffffffff81111561260257600080fd5b61260e878288016124ac565b91505092959194509250565b6000806040838503121561262d57600080fd5b600061263b85828601612458565b925050602061264c8582860161246d565b9150509250929050565b6000806040838503121561266957600080fd5b600061267785828601612458565b9250506020612688858286016124d6565b9150509250929050565b6000602082840312156126a457600080fd5b60006126b284828501612482565b91505092915050565b6000602082840312156126cd57600080fd5b60006126db84828501612497565b91505092915050565b6000602082840312156126f657600080fd5b6000612704848285016124d6565b91505092915050565b612716816132ab565b82525050565b612725816132bd565b82525050565b600061273682613153565b6127408185613169565b935061275081856020860161332e565b612759816134fa565b840191505092915050565b600061276f8261315e565b612779818561317a565b935061278981856020860161332e565b612792816134fa565b840191505092915050565b60006127a88261315e565b6127b2818561318b565b93506127c281856020860161332e565b80840191505092915050565b600081546127db81613361565b6127e5818661318b565b94506001821660008114612800576001811461281157612844565b60ff19831686528186019350612844565b61281a8561313e565b60005b8381101561283c5781548189015260018201915060208101905061281d565b838801955050505b50505092915050565b600061285a60328361317a565b91506128658261350b565b604082019050919050565b600061287d60088361317a565b91506128888261355a565b602082019050919050565b60006128a0601c8361317a565b91506128ab82613583565b602082019050919050565b60006128c3600a8361318b565b91506128ce826135ac565b600a82019050919050565b60006128e660248361317a565b91506128f1826135d5565b604082019050919050565b600061290960198361317a565b915061291482613624565b602082019050919050565b600061292c600b8361318b565b91506129378261364d565b600b82019050919050565b600061294f602c8361317a565b915061295a82613676565b604082019050919050565b600061297260138361317a565b915061297d826136c5565b602082019050919050565b6000612995600d8361318b565b91506129a0826136ee565b600d82019050919050565b60006129b860388361317a565b91506129c382613717565b604082019050919050565b60006129db602a8361317a565b91506129e682613766565b604082019050919050565b60006129fe60298361317a565b9150612a09826137b5565b604082019050919050565b6000612a21602e8361317a565b9150612a2c82613804565b604082019050919050565b6000612a4460028361318b565b9150612a4f82613853565b600282019050919050565b6000612a6760208361317a565b9150612a728261387c565b602082019050919050565b6000612a8a60318361317a565b9150612a95826138a5565b604082019050919050565b6000612aad606c8361318b565b9150612ab8826138f4565b606c82019050919050565b6000612ad0602c8361317a565b9150612adb8261398f565b604082019050919050565b6000612af360298361317a565b9150612afe826139de565b604082019050919050565b6000612b16602f8361317a565b9150612b2182613a2d565b604082019050919050565b6000612b39600a8361318b565b9150612b4482613a7c565b600a82019050919050565b6000612b5c60218361317a565b9150612b6782613aa5565b604082019050919050565b6000612b7f600a8361318b565b9150612b8a82613af4565b600a82019050919050565b6000612ba2601d8361318b565b9150612bad82613b1d565b601d82019050919050565b6000612bc560318361317a565b9150612bd082613b46565b604082019050919050565b612be481613315565b82525050565b6000612bf6828461279d565b915081905092915050565b6000612c0d828561279d565b9150612c19828461279d565b91508190509392505050565b6000612c31828661279d565b9150612c3d828561279d565b9150612c49828461279d565b9150819050949350505050565b6000612c6282856127ce565b9150612c6e828461279d565b9150612c7982612988565b91508190509392505050565b6000612c90826128b6565b9150612c9c828461279d565b915081905092915050565b6000612cb28261291f565b9150612cbe828461279d565b915081905092915050565b6000612cd482612b2c565b9150612ce0828561279d565b9150612ceb82612aa0565b9150612cf7828461279d565b9150612d0282612a37565b91508190509392505050565b6000612d1982612b72565b9150612d25828461279d565b915081905092915050565b6000612d3b82612b95565b9150612d47828461279d565b915081905092915050565b6000602082019050612d67600083018461270d565b92915050565b6000608082019050612d82600083018761270d565b612d8f602083018661270d565b612d9c6040830185612bdb565b8181036060830152612dae818461272b565b905095945050505050565b6000604082019050612dce600083018561270d565b612ddb6020830184612bdb565b9392505050565b6000602082019050612df7600083018461271c565b92915050565b60006020820190508181036000830152612e178184612764565b905092915050565b60006040820190508181036000830152612e398185612764565b9050612e486020830184612bdb565b9392505050565b60006060820190508181036000830152612e698186612764565b9050612e786020830185612bdb565b612e85604083018461270d565b949350505050565b60006020820190508181036000830152612ea68161284d565b9050919050565b60006020820190508181036000830152612ec681612870565b9050919050565b60006020820190508181036000830152612ee681612893565b9050919050565b60006020820190508181036000830152612f06816128d9565b9050919050565b60006020820190508181036000830152612f26816128fc565b9050919050565b60006020820190508181036000830152612f4681612942565b9050919050565b60006020820190508181036000830152612f6681612965565b9050919050565b60006020820190508181036000830152612f86816129ab565b9050919050565b60006020820190508181036000830152612fa6816129ce565b9050919050565b60006020820190508181036000830152612fc6816129f1565b9050919050565b60006020820190508181036000830152612fe681612a14565b9050919050565b6000602082019050818103600083015261300681612a5a565b9050919050565b6000602082019050818103600083015261302681612a7d565b9050919050565b6000602082019050818103600083015261304681612ac3565b9050919050565b6000602082019050818103600083015261306681612ae6565b9050919050565b6000602082019050818103600083015261308681612b09565b9050919050565b600060208201905081810360008301526130a681612b4f565b9050919050565b600060208201905081810360008301526130c681612bb8565b9050919050565b60006020820190506130e26000830184612bdb565b92915050565b60006130f2613103565b90506130fe8282613393565b919050565b6000604051905090565b600067ffffffffffffffff821115613128576131276134cb565b5b613131826134fa565b9050602081019050919050565b60008190508160005260206000209050919050565b600081519050919050565b600081519050919050565b600082825260208201905092915050565b600082825260208201905092915050565b600081905092915050565b60006131a182613315565b91506131ac83613315565b9250827fffffffffffffffffffffffffffffffffffffffffffffffffffffffffffffffff038211156131e1576131e061343e565b5b828201905092915050565b60006131f782613315565b915061320283613315565b9250826132125761321161346d565b5b828204905092915050565b600061322882613315565b915061323383613315565b9250817fffffffffffffffffffffffffffffffffffffffffffffffffffffffffffffffff048311821515161561326c5761326b61343e565b5b828202905092915050565b600061328282613315565b915061328d83613315565b9250828210156132a05761329f61343e565b5b828203905092915050565b60006132b6826132f5565b9050919050565b60008115159050919050565b60007fffffffff0000000000000000000000000000000000000000000000000000000082169050919050565b600073ffffffffffffffffffffffffffffffffffffffff82169050919050565b6000819050919050565b82818337600083830152505050565b60005b8381101561334c578082015181840152602081019050613331565b8381111561335b576000848401525b50505050565b6000600282049050600182168061337957607f821691505b6020821081141561338d5761338c61349c565b5b50919050565b61339c826134fa565b810181811067ffffffffffffffff821117156133bb576133ba6134cb565b5b80604052505050565b60006133cf82613315565b91507fffffffffffffffffffffffffffffffffffffffffffffffffffffffffffffffff8214156134025761340161343e565b5b600182019050919050565b600061341882613315565b915061342383613315565b9250826134335761343261346d565b5b828206905092915050565b7f4e487b7100000000000000000000000000000000000000000000000000000000600052601160045260246000fd5b7f4e487b7100000000000000000000000000000000000000000000000000000000600052601260045260246000fd5b7f4e487b7100000000000000000000000000000000000000000000000000000000600052602260045260246000fd5b7f4e487b7100000000000000000000000000000000000000000000000000000000600052604160045260246000fd5b6000601f19601f8301169050919050565b7f4552433732313a207472616e7366657220746f206e6f6e20455243373231526560008201527f63656976657220696d706c656d656e7465720000000000000000000000000000602082015250565b7f536f6c64204f7574000000000000000000000000000000000000000000000000600082015250565b7f4552433732313a20746f6b656e20616c7265616479206d696e74656400000000600082015250565b7f54484952445f574f524400000000000000000000000000000000000000000000600082015250565b7f4552433732313a207472616e7366657220746f20746865207a65726f2061646460008201527f7265737300000000000000000000000000000000000000000000000000000000602082015250565b7f4552433732313a20617070726f766520746f2063616c6c657200000000000000600082015250565b7f5345434f4e445f574f5244000000000000000000000000000000000000000000600082015250565b7f4552433732313a206f70657261746f7220717565727920666f72206e6f6e657860008201527f697374656e7420746f6b656e0000000000000000000000000000000000000000602082015250565b7f496e73756666696369656e7420466f756e647300000000000000000000000000600082015250565b7f3c2f746578743e3c2f7376673e00000000000000000000000000000000000000600082015250565b7f4552433732313a20617070726f76652063616c6c6572206973206e6f74206f7760008201527f6e6572206e6f7220617070726f76656420666f7220616c6c0000000000000000602082015250565b7f4552433732313a2062616c616e636520717565727920666f7220746865207a6560008201527f726f206164647265737300000000000000000000000000000000000000000000602082015250565b7f4552433732313a206f776e657220717565727920666f72206e6f6e657869737460008201527f656e7420746f6b656e0000000000000000000000000000000000000000000000602082015250565b7f45524337323155524953746f726167653a2055524920736574206f66206e6f6e60008201527f6578697374656e7420746f6b656e000000000000000000000000000000000000602082015250565b7f227d000000000000000000000000000000000000000000000000000000000000600082015250565b7f4552433732313a206d696e7420746f20746865207a65726f2061646472657373600082015250565b7f45524337323155524953746f726167653a2055524920717565727920666f722060008201527f6e6f6e6578697374656e7420746f6b656e000000000000000000000000000000602082015250565b7f222c20226465736372697074696f6e223a20224120686967686c79206163636c60008201527f61696d656420636f6c6c656374696f6e206f662063686172616374657220746960208201527f746c65732e222c2022696d616765223a2022646174613a696d6167652f73766760408201527f2b786d6c3b6261736536342c0000000000000000000000000000000000000000606082015250565b7f4552433732313a20617070726f76656420717565727920666f72206e6f6e657860008201527f697374656e7420746f6b656e0000000000000000000000000000000000000000602082015250565b7f4552433732313a207472616e73666572206f6620746f6b656e2074686174206960008201527f73206e6f74206f776e0000000000000000000000000000000000000000000000602082015250565b7f4552433732314d657461646174613a2055524920717565727920666f72206e6f60008201527f6e6578697374656e7420746f6b656e0000000000000000000000000000000000602082015250565b7f7b226e616d65223a202200000000000000000000000000000000000000000000600082015250565b7f4552433732313a20617070726f76616c20746f2063757272656e74206f776e6560008201527f7200000000000000000000000000000000000000000000000000000000000000602082015250565b7f46495253545f574f524400000000000000000000000000000000000000000000600082015250565b7f646174613a6170706c69636174696f6e2f6a736f6e3b6261736536342c000000600082015250565b7f4552433732313a207472616e736665722063616c6c6572206973206e6f74206f60008201527f776e6572206e6f7220617070726f766564000000000000000000000000000000602082015250565b613b9e816132ab565b8114613ba957600080fd5b50565b613bb5816132bd565b8114613bc057600080fd5b50565b613bcc816132c9565b8114613bd757600080fd5b50565b613be381613315565b8114613bee57600080fd5b5056fe416e204e465420772f20494420257320686173206265656e206d696e74656420746f2025734142434445464748494a4b4c4d4e4f505152535455565758595a6162636465666768696a6b6c6d6e6f707172737475767778797a303132333435363738392b2fa2646970667358221220f6a1ed321b5dd1d6e530f18adde3a8e0344f5eebfeefd067e2162d08c7e70e5864736f6c634300080400333c73766720786d6c6e733d22687474703a2f2f7777772e77332e6f72672f323030302f73766722207072657365727665417370656374526174696f3d22784d696e594d696e206d656574222076696577426f783d223020302033353020333530223e3c726563742077696474683d223130302522206865696768743d2231303025222f3e3c636972636c652063783d22353025222063793d223530252220723d2233352522207374726f6b653d222366666622207374726f6b652d77696474683d2235222f3e3c7465787420783d223530252220793d223530252220646f6d696e616e742d626173656c696e653d226d6964646c652220746578742d616e63686f723d226d6964646c6522207374796c653d2266696c6c3a236666663b666f6e742d66616d696c793a4c756d696e6172692c4469646f743b666f6e742d73697a653a31357078223e23",
  "linkReferences": {},
  "deployedLinkReferences": {}
}